:020000040000FA
:10000000000000EB310000EB2C008FE2000C90E8C8
:1000100000A08AE000B08BE001704AE20B005AE1D8
:100020000000001A290000EB0F00BAE818E04FE2C8
:10003000010013E303F0471013FF2FE1E409000070
:10004000040A0000102052E27800B0287800A128AD
:10005000FBFFFF8A822EB0E13000B0283000A128DB
:1000600000409045004081451EFF2FE10030B0E385
:100070000040B0E30050B0E30060B0E3102052E273
:100080007800A128FCFFFF8A822EB0E13000A12871
:10009000003081451EFF2FE101C08FE21CFF2FE1E0
:1000A0001FB50098019900F0BAFA00F02BFA0598F4
:1000B00086460FBC009C02B07047000001C08FE272
:1000C0001CFF2FE130B47546AE4630BC70470000CF
:1000D000A00100EB0210A0E1EEFFFFEB1CC09FE5CA
:1000E0000FC08CE001001CE30DE08F120FE0A001B7
:1000F0001CFF2FE101C08FE21CFF2FE100F078FB15
:10010000C00100007847C04603002DE9EAFFFFEB7D
:100110000300BDE88A0100EB0C009FE50C109FE591
:100120000C209FE50C309FE51EFF2FE17000004082
:100130007008004070040040700400407C109FE58F
:10014000081091E50010A0E370209FE5081082E5FB
:100150001EFF2FE10010A0E160009FE5000090E588
:10016000100010E30100001A0100A0E31EFF2FE1C0
:1001700048009FE5000090E5200010E30100001A10
:100180000200A0E3F8FFFFEA30009FE5000090E5E1
:10019000400010E30100001A0300A0E3F2FFFFEAB1
:1001A00018009FE5000090E5800010E30100001AB0
:1001B0000400A0E3ECFFFFEA0000A0E3EAFFFFEA8F
:1001C000008002E020109FE5001080E51C109FE5F4
:1001D000181091E50F1881E310209FE5181082E5B3
:1001E0000118A0E3141082E51EFF2FE1040A0000AD
:1001F000008002E00F28A0E384309FE5142083E50F
:10020000000051E30600000A010051E30900000A62
:10021000020051E30C00000A030051E31400001A2D
:100220000E0000EA0000A0E10128A0E350309FE5A5
:100230001C2083E5100000EA0000A0E10228A0E3F2
:100240003C309FE51C2083E50B0000EA0000A0E1A4
:100250000127A0E328309FE51C2083E5060000EA83
:100260000000A0E10227A0E314309FE51C2083E5F5
:10027000010000EA0000A0E10000A0E10000A0E110
:100280001EFF2FE1008002E0F8309FE5900302E0BE
:100290000010A0E3000000EA011081E2020051E139
:1002A000FCFFFFBA1EFF2FE1DC009FE5A8FFFFEB7C
:1002B000040050E30C00001A0400A0E3BB0100EBB3
:1002C0000050A0E10540A0E10400A0E1BCFFFFEB6D
:1002D0000040A0E1B4009FE5000084E50450A0E1E7
:1002E000AC009FE5004080E50C0000EA0400A0E3BC
:1002F000AE0100EB0050A0E10540A0E10400A0E148
:10030000AFFFFFEB0040A0E188009FE5000084E51F
:100310000450A0E178009FE5004080E50000A0E1E6
:100320006C009FE5001090E56C009FE54B0000EB32
:100330000E0000EA7D0FA0E3D2FFFFEB48009FE52F
:1003400083FFFFEB0040A0E1010054E30200001A2C
:1003500044009FE53A0000EB030000EA020054E38A
:100360000100001A30009FE52E0000EB0000A0E124
:10037000EFFFFFEA10402DE90C009FE56EFFFFEB59
:100380001040BDE81EFF2FE11027000008000040CC
:10039000100A00000C0000401C0A00000000004091
:1003A00070402DE90040A0E10150A0E1000055E3BC
:1003B0000900001A0000D4E5010040E20000C4E595
:1003C0000000D4E5C01FA0E1211F80E04111A0E1A1
:1003D000011140E00010C4E50A0000EA010055E305
:1003E0000800001A0000D4E5010080E20000C4E526
:1003F0000000D4E5C01FA0E1211F80E04111A0E171
:10040000011140E00010C4E50010D4E5040094E5BB
:10041000003090E5002093E50FE0A0E112FF2FE10E
:100420007040BDE81EFF2FE110402DE90040A0E123
:100430000110A0E30400A0E1D8FFFFEB1040BDE8ED
:100440001EFF2FE110402DE90040A0E10010A0E3C5
:100450000400A0E1D1FFFFEB1040BDE81EFF2FE13B
:10046000041080E51EFF2FE10F28A0E384309FE5F4
:100470001C2083E5000051E30600000A010051E35F
:100480000900000A020051E30C00000A030051E3D6
:100490001400001A0E0000EA0000A0E10128A0E309
:1004A00050309FE5142083E5100000EA0000A0E131
:1004B0000228A0E33C309FE5142083E50B0000EA0E
:1004C0000000A0E10127A0E328309FE5142083E588
:1004D000060000EA0000A0E10227A0E314309FE537
:1004E000142083E5010000EA0000A0E10000A0E183
:1004F0000000A0E11EFF2FE1008002E0704770477E
:100500007047000070B5074C7C44074D7D4404E003
:100510002068001900F068FA241DAC42F8D170BCC4
:1005200008BC184734050000340500007847C04671
:1005300000009FE51EFF2FE14400004070B506005B
:1005400000F048F8056830000B30C408E400B442FD
:1005500003D870BC002008BC184768682A0000282F
:100560001AD00168A14213D30B00210008318B423D
:1005700008D3436801194B6003681B1B0B60516073
:10058000046001E04168516070BC001D08BC184760
:10059000020040680028E4D12100280000F026F87D
:1005A0000028DAD170BC08BC184710B500F0A0F8DC
:1005B00000F095F810BC08BC184710B500F0B2F870
:1005C00010BC08BC1847000000009FE51EFF2FE18B
:1005D000100000407847C04600009FE51EFF2FE155
:1005E00018000040704770477047704738B50400E6
:1005F0000A0069460020C046C046002805D0020017
:100600000099200000F0D8F8012038BC08BC184739
:1006100010B5012000F016F910BC08BC1847F8B559
:10062000C046C04605000C0000201020C046060051
:10063000A819A0420DD9694632000020C046C04624
:10064000070001D100F0FEF80098A04200D005009C
:10065000C419FFF7BFFFF61D07000560F008C000D2
:100660004619280000F00AF8B44204D03868A21BEA
:10067000310000F0A1F8F8BC08BC18470021016067
:100680004160806070471020704770B50400051FFE
:10069000FFF7A0FF0068002C1AD0446801E020009A
:1006A0006468002C01D0AC42F9D301680A18AA4250
:1006B00004D12A6889180500016000E045602868B7
:1006C0004119A14207D1616869602168401828601A
:1006D00070BC08BC18476C6070BC08BC184710B5EB
:1006E000002801D000F032F810BC08BC1847000008
:1006F00010B5002103A000F089F810BC012008BC4F
:10070000184700005349475056464E3A20507572DC
:1007100065207669727475616C20666E2063616C09
:100720006C65640010B500F098F80169002904D0E8
:100730000022026100F059F902E0806800F054F9EB
:1007400000F05CF801C08FE21CFF2FE10149182086
:10075000ABDFFEE7260002000E50A0E199FFFFEBA1
:1007600005E0A0E10050B0E10D10A0E10A30A0E1E9
:100770000700C0E300D0A0E160D08DE220402DE969
:1007800064FEFFEB2040BDE80060A0E30070A0E342
:100790000080A0E300B0A0E30710C1E305C0A0E122
:1007A000C009ACE8C009ACE8C009ACE8C009ACE8D5
:1007B00001D0A0E11EFF2FE110B50300406801E069
:1007C00003004068002801D08842F9D31868C31894
:1007D0008B4206D0CB1CD808C000001D411A521A0B
:1007E0000100081D0A60FFF750FF10BC08BC184745
:1007F0000400C046C0462000FFF784FC002000F043
:1008000067F8FFF75FFC0120FFF7A0FF70B50C0051
:1008100005000A2000E06D1C00F048F8002D06D00D
:1008200028780028F7D102E0641C00F03FF8002C83
:1008300002D020780028F7D10A2000F037F870BCE9
:1008400008BC184710B500F04BF8FFF748FF10BC84
:1008500008BC184710B5FFF7D1FF70B500F030F8AD
:1008600004680500002C15D12020FFF767FE040066
:1008700014D00B49002022002C6003C20949A1605A
:1008800020730949206160610029A06101D000F056
:1008900051F8E061200070BC08BC1847FFF7AEFFBC
:1008A00000000000550800000000000008B569467F
:1008B00008700320ABDF01B008BC18471EFF2FE112
:1008C0007847C04600009FE51EFF2FE14C00004026
:1008D00010B500F053F8FFF702FF10BC08BC184732
:1008E00010B5012807D0002104A0FFF78FFF10BC2E
:1008F000012008BC184709A1F6E7000053494752F8
:10090000544D454D3A204F7574206F6620686561DF
:1009100070206D656D6F7279000000003A204865A7
:100920006170206D656D6F727920636F7272757082
:100930007465640010B58820FFF700FE002801D020
:100940000021017010BC08BC1847802904D8002879
:1009500002D00178002901D00020704701210170E8
:1009600008307047002803D002000832914201D0BD
:1009700000207047002101707047000010B5002171
:1009800003A0FFF743FF10BC012008BC184700007C
:10099000534947414252543A2041626E6F726D6131
:1009A0006C207465726D696E6174696F6E00000011
:1009B00001C08FE21CFF2FE110B5040009D1012412
:1009C00007E0FFF7B3FD0068002800D1054800F0FC
:1009D0000BF82000FFF7B2FD0028F2D010BC08BCD5
:1009E00018470000BB0500000047084710B500206D
:1009F000FFF7DBFD10BC08BC18470000000000003A
:100A000000000000ED0900000000000000000000F0
:100A1000F401000000000000000000006804000075
:100A2000440A0000000000401000000044000000E4
:100A3000540A000010000040E80800006C000000AC
:100A400034F9FFFF0000000000000000000000007B
:040A500000000000A2
:0400000500000000F7
:00000001FF
